:020000040000FA
:10000000F81620208D0100009101000093010000EE
:1000100000000000000000000000000000000000E0
:10002000000000000000000000000000950100003A
:10003000000000000000000097010000990100008E
:100040009B010000010800009B0100009B010000D3
:100050009B0100009B0100009B0100009B01000030
:10006000000000009B0100009B0100000000000058
:10007000000000009B0100004D1A00009B010000E1
:100080009D0E00009B010000850E00009B010000FA
:100090009B0100009B010000000000000000000028
:1000A0009B0100009B010000000000000000000018
:1000B0009B010000000000009B0100009B0100006C
:1000C00000F002F800F052F812A030C808382418E6
:1000D0002D18AC4201D100F049F80FCCA246AB4636
:1000E0000CA730CF2D1B083F3F197C427F1E544484
:1000F0002D090426F441641EAC4201D300F036F809
:100100000126334200D0FB1A3343984754465D46DC
:10011000DFE70000042500002425000000000000A7
:10012000103A02D378C878C1FAD8520701D330C840
:1001300030C101D504680C60704700000000000069
:100140007047000000000000002300240025002666
:10015000103A01D378C1FBD8520700D330C100D583
:100160000B6070471FB51FBD10B510BD00F07AF9C8
:100170001146FFF7F7FF01F009FE00F092F903B412
:10018000FFF7F2FF03BC01F08FFC000006480047B8
:10019000FEE7FEE7FEE7FEE7FEE7FEE70348044969
:1001A000044A054B70470000C1000000F8022020FF
:1001B000F8162020F8122020F812202070477047EF
:1001C00070470000F0B5FF252D04C609C209FF27BE
:1001D00004462E400137CB093E4348402A402B407D
:1001E0000746002A6BD0002B69D0AA4267D0AB42E9
:1001F00065D0002800DA32460125ED0529432C435D
:1002000009022002090AD21A4B0C7F24E31A434C3C
:10021000000A7C44E35C7D242404121914145B005E
:10022000A218884201D3521C00E0400049420C460B
:100230005C4324115C43DB016415E318040A5C434E
:10024000C502200D0C4644436419250A5D4323036F
:10025000EC0C0D46654300030019EB184C42A34219
:1002600001D35B18401CD4052018002B07D05B007D
:10027000C91804D3401C002901D1400840003F2187
:1002800089048A4209D3002A08DC1106090F04D028
:10029000032149074018C00FC007F0BD01224100EB
:1002A000120689187F2252069142F6D2052149078B
:1002B000C84201D59010F0BDFF20C005F0BD002F51
:1002C00000DA32461648AA4207D2AB4205D21902DA
:1002D000090E17D0F80FC007F0BDFF2563002D06EB
:1002E000AB42F9D84900A942F6D8AB4201D1A942A4
:1002F000F2D0A94201D1002101E061004908D005F6
:100300000843F0BD1102090EFBD0FF200243D005C7
:10031000F0BD0A460146104654E70000762300006F
:100320000000C07F10B501469E240002CA15A30735
:10033000002A02D01843002A04DBA21A002A0CDD8E
:10034000D04010BD1206120E01D140004008A21A82
:1003500003D4D04040420028F3DDFF2248001206BB
:10036000904201D9002010BDC817C043584010BDAD
:100370000102C21504D00123DB071943002A0ADB5E
:100380009E239A1A02D40846D0407047FF224100AB
:100390001206914201D900207047C017C043704730
:1003A0001F22030C02D10F2200041CD0030E01D126
:1003B0000002083A030F01D10001121F830F01D17F
:1003C0008000921E002801DB4000521ED205511809
:1003D000021251181922904004D3491C002801D15F
:1003E0004908490008467047C10FC90700D040427C
:1003F000012292071143D3E701218907D0E70000CA
:1004000010B5FF231B0644009C421DD84C009C42A3
:100410001AD80346124A0B4307D4401A02D3EFF30B
:10042000008010BDEFF3008010BD081A03D3EFF376
:100430000080904305E0EFF3008001219043C9075D
:10044000084380F3008810BD0D231B041A4204D01A
:100450001146002000F02DF810BD00F041F810BD4D
:1004600000000090754600F043F8AE46050069466E
:100470005346C008C000854618B020B5FFF78EFE71
:1004800060BCB64600260027C0C5C0C5C0C5C0C5F3
:10049000C0C5C0C5C0C5C0C5403D490849008D465E
:1004A000704710B50446C046C0462046FFF767FEB9
:1004B00010BDC80212D54803400F002804D0C8035D
:1004C000C043012188407047EFF30080000100091C
:1004D00003210907084380F3008870470020704714
:1004E00010B5024800F008F810BD00000000C07F01
:1004F000004870471000202010B50C461107090F66
:10050000092904D00A290AD008290CD104E011468F
:100510000820FFF7CEFF06E0510606D501E05106A0
:1005200001D50120C007214610BDD10607D5010124
:100530000909CC084907000E0006044309E0410FF1
:1005400020024907000A0143200E00061D22D14166
:1005500001430846E7E700000120C00501490860A3
:100560007047C04690120A400120C005014908604A
:100570007047C046A0120A40811E091F00BFFCD26E
:1005800070470000F0B584B06B4A82180292734B3A
:10059000C618784BC21800922A4BC4180A790191E8
:1005A0000D68294F202A03920AD0254BC018002A33
:1005B00017D16B1E029A536023683B40882517E0D1
:1005C000681E029A506020683840204B1843206013
:1005D0006068384018436060012045071C4F104692
:1005E00008E06B08029A536023683B400525ED0143
:1005F0002B432360009903683B402B430360306822
:100600004F4B1840306070681840706000200860E0
:1006100048608F20C043236903402361636903401E
:1006200063610198807903990843BD2101401068F6
:10063000084B0340C818801C106004B0F0BDC046D1
:10064000741800007018000024F93FF00104000045
:10065000FFFFFFCF4000FFCF70B5374A82184B68CD
:1006600053603E4BC3180878222857D8840001A550
:100670002C59A746130700001D07000013070000B0
:100680001D0700001D0700001D0700001D070000DA
:100690001D0700001D0700001D0700001D070000CA
:1006A0001D0700001D0700001D0700001D070000BA
:1006B0001D070000010700001D07000001070000E2
:1006C0001D0700001D0700001D0700001D0700009A
:1006D0001D0700001D0700001D0700001D0700008A
:1006E0001D0700001D0700001D0700001D0700007A
:1006F0001D070000010700001D07000001070000A2
:10070000032424071568A543012464072C191460E9
:1007100004E0032424071568A54315600C69D46020
:10072000CC68064D25401C68054E264074191C6097
:10073000097A0143116070BD041800007777020048
:100740008888FDFF10B507239B041940920080188C
:10075000024A84589C436118815010BD3018000033
:1007600010B5029CA400001911431943014A81509D
:1007700010BDC0465018000092008018014A8150F8
:100780007047C0461018000010B5012212038318EC
:100790000C789C604B7883508978014A815010BD59
:1007A0000C110000B0B51122120283580124A3439A
:1007B00083508B780C881C438B882343094C1C4046
:1007C0008358094D1D402B1983508B79CC791C43DC
:1007D000097A21437E231940801842689A435118B0
:1007E0004160B0BD18670000E798FDFF10B5012219
:1007F000120383180C789C604978815010BD00006A
:10080000F0B581B0032001022A4D28461038006857
:100810000840410A01246702274A103A1668002955
:1008200007D100281ED08648006838420ED02349E0
:100830000EE083480068C00502D57F20C10500E0B6
:100840001E491F48006801F047FD06E07F20C105F2
:100850001B48006801F040FD27021949086028681C
:1008600038432860300607D4700620D55648006803
:1008700000060FD511490FE053480068400602D525
:100880007F20C10500E00D490E48006801F024FDFD
:10089000802106E07F20C1050A48006801F01CFDA8
:1008A0004021084A1060044A10680843106001B0F3
:1008B000F0BDC04648100A4048300A40000080BFE2
:1008C000700020207400202010B522480188491CA7
:1008D0000180384A1278521E53425341344A1278EA
:1008E000521E544254411C43334A1278521E534202
:1008F00053412343314A1278521E544254411C43FF
:100900002F4A1278521E5342534123432D4A1278E4
:10091000521E544254411C432C4A1278521E5342D8
:1009200053412343DA070BD00B4A13885B1C138017
:100930001BB2062B04DB094801210180054905E0B3
:1009400009B2074A914204DB0449024600201080A4
:10095000088010BDE00020207E00202080002020A4
:100960003011000036480168C904C90F104A1170DF
:1009700001688904C90F0F4A117001680904C90F81
:100980000D4A11700168C903C90F0C4A1170016842
:100990008903C90F0A4A117000684003C00F094952
:1009A000087009480068C005C00F08490870704702
:1009B0008A0020208900202088002020820020201A
:1009C0007A0020207B00202080330A407C002020F9
:1009D00010B51B4C2068400713D4282001F0D2F832
:1009E0002068400708D42068400705D420684007E5
:1009F00002D420684007F3D5282001F0C3F8012075
:100A000010BD002010BDC04610B50D4C2068002858
:100A100013D4282001F0B6F82068002808D42068F4
:100A2000002805D42068002802D420680028F3D5C7
:100A3000282001F0A7F8012010BD002010BDC046FD
:100A400080130A4001208006074908607047C046AD
:100A5000012080065C4908607047C0460120C0063E
:100A6000014908607047C046A0120A400120C00634
:100A7000554908607047C04670B50D490B781C4950
:100A80000A461032012B154600D00D460124A6045B
:100A90002E60012B00D01146E2040A60FFF768FCCB
:100AA000014620316B480022FFF766FE70BDC0464C
:100AB0000C00202070B50D490B780D490A46103204
:100AC000012B154600D00D46012426052E60012B72
:100AD00000D0114622060A60FFF74AFC0146203189
:100AE0005C482246FFF748FE70BDC0460D0020203E
:100AF00090320A40B0B52D4987224A622C4804231F
:100B000003608A62082202602A4A822313622A4B07
:100B100053628124D463294BCB64294D5565946578
:100B2000284D4D600D609461D461946294638B6331
:100B30004B638B644B640B674B67CB6713605360ED
:100B4000936003229106204B19610121C9051960A8
:100B50001921C905196405210B041C4C25681D4386
:100B600025601B4B1C68302525431D6094075D687C
:100B700025435D601202174B1C6A14431C621C68FB
:100B800014431C600246403A47239B0413600360F1
:100B9000080311490A6802430A601048016AC0222A
:100BA00011430162016811430160B0BD18804240E9
:100BB000D0320A40988042408200040081000C003C
:100BC0008100010081000E0090120A4090130A403B
:100BD00008150A4028100A4090330A4028300A407D
:100BE00070B582B01B4C1C492046FFF7CDFD1B4958
:100BF0002046FFF7C7FC1A4801681A4A0A400260FB
:100C000000250095204629462A462B46FFF7A8FDD9
:100C1000204629462A46FFF795FD204629462A46C2
:100C2000FFF7AAFD01260096204629462A462B46B4
:100C3000FFF796FD204629463246FFF783FD204602
:100C400029463246FFF798FD074886600321016078
:100C500002B070BD00808640CC250000D025000089
:100C6000049886407F00FFFF009186400F480021D6
:100C700001600320C1430E480246083A13680B4046
:100C800013600168012291430160110203688B43E4
:100C900003601103001F02680A430260FF20000284
:100CA00004490A6882430A607047C04608030B4043
:100CB00008010B4000E400E00548042101601F2109
:100CC000416000218160016805220A43026070478B
:100CD00010E000E010B50B4C0B492046FFF754FD27
:100CE0000A492046FFF7B8FC094801680122114370
:100CF0000160FF20000419490B6883430B6005481D
:100D0000026010BD00008640D8250000DC250000F0
:100D1000281086400811864010B50C4C0C4920461E
:100D2000FFF732FD0B492046FFF796FC0A480168A1
:100D300002220A4302600948016840220A43BF2197
:100D40008A43026006480121016010BD004008404E
:100D5000F0250000F42500002850084010E400E0D1
:100D60000851084010B5154C15492046FFF73EFDC7
:100D700014492046FFF716FD0320C10312480268FC
:100D80008A4302600169114A0A40113202614169D5
:100D900017220A4328218A434261416801221140F7
:100DA00043689343591841609102094B1C680C43F6
:100DB0001C6001681143016010BDC0460020104056
:100DC000082600000A260000003110400000FFFF46
:100DD0002830104080B500F01BF8FFF78BFEFFF7BE
:100DE00045FFFFF7FDFEFFF775FFFFF795FFFFF7E4
:100DF000B9FFFFF761FFB820034900220A549C2085
:100E000002490A5480BDC04694012020F4002020ED
:100E100070B50C480C4941600C4A51600C4B59604C
:100E20000C4C61600C4D69600C4E71600C490160A6
:100E3000116019602160296031601020FFF79CFB70
:100E400070BDC04600080A40030000B100280A40F7
:100E5000008886400008864000480840002810406E
:100E60000100002610B5064C2078002800D010BDE7
:100E7000FFF77AFBFFF7ECFD0120207010BDC046A4
:100E80009D00202080B504480068000603D0FFF7CD
:100E900069FD01F063F880BD2010864080B50848E8
:100EA000006800060BD0AF480078012805D1AB4898
:100EB0000078002801D100F0B5FE00F0DDFD80BD16
:100EC0002050084070B582B09B4C207802282AD070
:100ED000012808D000283ED101202070A24800211E
:100EE000018002B070BDA4480090412002069448E1
:100EF00000210B4600F0CCFF9C48184901609A4D38
:100F00002888002808D1924EFFF7DEFC306800F0F8
:100F1000CDFD28880028F7D0FFF7A4FF2078401CDB
:100F2000207002B070BD00F0A5FF642000F02AFE22
:100F30008D48018800290ED0884900220A7088490E
:100F40000A7088490A70028088480260227019205D
:100F5000000100F017FE02B070BDC04600009643CD
:100F6000F0B583B074480078052800D9E1E0C046A8
:100F70007844007940008744025B1C2F08757A484A
:100F80000021018001206C49D2E000F073FF19209C
:100F90000001643000F0F6FD744875490160724C40
:100FA0002088002800D1BEE0FFF78EFC00F0F8FF9B
:100FB000F6E700F05FFF1920000100F0E3FD6B4849
:100FC0006B490160684C2088002800D1ABE0FFF736
:100FD0007BFC00F0E5FFF6E700F04CFF642000F03A
:100FE000D1FD61480088002802D1574801210170D5
:100FF000604800905248534A00242146234600F09E
:1010000047FF5A48029404604F4E307800286BD056
:101010004E4F4F4C4F4D206800F048FD2888401C33
:10102000288000B2B8425ADC30780028F3D15BE067
:101030005148009041200206414800210B4600F033
:1010400027FF4A484E490160474C208800286AD152
:101050003F4DFFF739FC286800F028FD2088002864
:10106000F7D060E000F006FF642000F08BFD33480D
:1010700000903348334A00242146234600F008FFFD
:10108000314F3878002854D0192000012F4E314DAF
:1010900096366438029002E03878002849D02C480F
:1010A000006800F003FD2888401C288000B2B04290
:1010B000F2DD00F0DFFE2C80274804803C700298AF
:1010C00000F060FD25480470254804702548047030
:1010D000254804802548046017480470DCE702991D
:1010E00029801D480180317000F0C4FE19200001E4
:1010F00000F048FD204800904120020610480021E1
:101100000B4600F0C5FE1D4818490860164D28889A
:10111000002808D10E4CFFF7D7FB206800F0C6FC72
:1011200028880028F7D0FFF79DFE03490878401C67
:10113000087003B0F0BDC046F4022020000020403B
:10114000A80020200000E040F0022020F82A000043
:10115000DC002020F2022020E0002020F1002020EE
:10116000A0002020B902202080002020E4002020C0
:10117000000091430000404000000C420000A043EA
:1011800000009B43F0B583B0F4480078052800D9EF
:1011900003E1C046784400794000874402782A5A27
:1011A0000FCFF94800210160ED480180F54801604A
:1011B000F6480160F64801600124CBE1FFF752FEDA
:1011C00000F058FE642000F0DDFCE74800210160DB
:1011D000F4480090E648E74A02910B4600F058FEBA
:1011E000DF480088002800D1D9E0DE4801210170E5
:1011F000D9E0FFF737FE00F03DFE642000F0C2FCAE
:10120000D7480088002802D0D64801210170E5485F
:101210000090D748D74A00242146234600F038FEE4
:10122000D14802940460CF4F3878002800D167E19C
:10123000D14ED24DD24C286800F038FC2088401C9A
:10124000208000B2B04200DD55E138780028F2D1AC
:1012500056E1FFF707FE00F00DFE642000F092FC5F
:10126000D0480090C248C34A00242146234600F0DB
:101270000FFEBB48008800280294BB4800D1B9E0AB
:101280000460B8480078002800D0B7E0CCE07F20A8
:10129000C0050090B648C54A00210B4600F0F8FD95
:1012A000B149C3480860B8480068C24E3040C549DB
:1012B0000C68214600F0F8FF00281ED1B14F3868B5
:1012C0003040214600F0F0FF002816D1BE4C2046E9
:1012D00000F0ECFB00F07AFCAB4800683040B94904
:1012E0000D68294600F0E0FF002806D1386830403C
:1012F000294600F0E4FF0028E9D100F0BBFD7D2085
:10130000800000F03FFCAE4897490860FF20800550
:1013100000909748A54A00210B4600F0B9FD904C7B
:101320002088002800D0E0E0944DFFF7CDFA28682F
:1013300000F0BCFB20880028F7D0D6E0FFF792FD34
:1013400000F098FD642000F01DFC8548008800280E
:1013500002D184480121017083480024046083483D
:1013600000908348834A2146234600F091FD7D4842
:101370000078002811D0804E804F814D9636386815
:1013800000F094FB2888401C288000B2B04200DDA9
:10139000C7E0744800780028F1D103B0F0BD71486F
:1013A0000078002815D0744E744D754C6D4F286828
:1013B00000F07CFB2088401C208000B2B04203DC9F
:1013C00038780028F3D104E0029921807148018027
:1013D00039707D208000643800F0D4FB7248624987
:1013E00008605F4C208800287FD0FFF76DFA00F07E
:1013F000D7FDF7E704605B48012101705E4E5F4D49
:101400005F4F584C286800F051FB3888401C3880EA
:1014100000B2B04203DC20780028F3D104E0029946
:1014200039805C48018021705648029D0560564C09
:10143000256056480560564805607D208000019073
:1014400000F0A0FB7F20C00500904948574A29467C
:101450002B4600F01DFD4449554808602068554C56
:101460002040554F3D68294600F01EFF00281ED140
:10147000444800682040294600F016FF002816D195
:101480004E4D284600F012FB00F0A0FB3E480068DD
:1014900020403E68314600F007FF002807D1394858
:1014A00000682040314600F00AFF0028E9D100F032
:1014B000E1FC019800F066FB41482B490860FF20E1
:1014C000800500902A48394A00210B4600F0E0FCD4
:1014D000234D2888002808D1284CFFF7F5F920680B
:1014E00000F0E4FA28880028F7D000F0C3FC1B497C
:1014F0000878441C2FE00299218026480180397029
:101500007D208000643800F03DFB274816490860C4
:10151000134C20880028E8D0FFF7D6F900F040FDF2
:10152000F7E700F0A7FC1748046017480460174865
:10153000046017480460174804802C800948047030
:101540001548047015480470154804700448048058
:101550000548046001490C7003B0F0BDF40220207E
:1015600080002020F0022020E40020200000204005
:10157000A80020200000E040F82A0000DC00202025
:10158000F2022020EC002020E80020207000202023
:1015900074002020E0002020A0002020F100202066
:1015A000B90220200000404000008C430000A04011
:1015B0000000A043FFFFFF7F0800202000004842FA
:1015C00000003E4304002020000038C2F0B583B084
:1015D000064A1078052800D9FCE1C0467844007915
:1015E00040008744057D2F5F14D5C046F4022020BB
:1015F000F94800210160FD480180FB480160F7487F
:101600000160F74801600120107003B0F0BDFFF7E2
:1016100029FC00F02FFC642000F0B4FAF54800210A
:101620000160F0480090F548F54A02910B4600F041
:101630002FFCEE480088002800D1DAE0EC480121B8
:101640000170DAE0FFF70EFC00F014FC642000F0FB
:1016500099FAE6480088002802D0E5480121017087
:10166000F1480090E548E64A00242146234600F070
:101670000FFCE04802940460DD4F3878002800D168
:101680006AE1E04EE04DE14C286800F00FFA208856
:10169000401C208000B2B04200DD58E138780028BC
:1016A000F2D159E1FFF7DEFB00F0E4FB642000F02B
:1016B00069FADD480090D148D14A002421462346EA
:1016C00000F0E6FBC948008800280294C94800D110
:1016D000BAE00460C6480078002800D0B8E0CDE049
:1016E0007F20C0050090C548D14A00210B4600F07C
:1016F000CFFBC049CA480860C6480068CD4E30409C
:10170000D0490C68214600F0CFFD00281ED1C04F03
:1017100038683040214600F0C7FD002816D1CA4C79
:10172000204600F0C3F900F051FABA480068304092
:10173000C4490D68294600F0B7FD002806D1386875
:101740003040294600F0BBFD0028E9D100F092FBB3
:1017500019200001643000F015FAB948A549086065
:10176000FF2080050090A548B14A00210B4600F0FB
:101770008FFB9E4C2088002800D0E0E0A24DFFF7B0
:10178000A3F8286800F092F920880028F7D0D6E066
:10179000FFF768FB00F06EFB642000F0F3F993485C
:1017A0000088002802D1924801210170EF480024EE
:1017B000046091480090E848914A2146234600F091
:1017C00067FB8B480078002800D1E5E08D4D8E4FF7
:1017D0008E4E9635386800F069F93088401C3080AC
:1017E00000B2A84200DDC8E0814800780028F1D1AD
:1017F000D2E07F480078002815D0824E824D834C7D
:101800007B4F286800F052F92088401C208000B2ED
:10181000B04203DC38780028F3D104E0029921803B
:101820007D480180397019200001643800F0AAF960
:101830007E48CE4908606D4C208800287FD0FFF795
:1018400043F800F0ADFBF7E704606948012101703F
:101850006C4E6D4D6D4F664C286800F027F9388846
:10186000401C388000B2B04203DC20780028F3D15D
:1018700004E002993980684801802170E248029DA5
:101880000560DF4C2560DD480560DE4805601920F5
:101890000001019000F076F97F20C0050090AE486D
:1018A000634A29462B4600F0F3FAB0495C480860C9
:1018B0002068604C2040604F3D68294600F0F4FCF1
:1018C00000281ED1D04800682040294600F0ECFCDA
:1018D000002816D1594D284600F0E8F800F076F9B6
:1018E000C748006820403E68314600F0DDFC002813
:1018F00007D1C54800682040314600F0E0FC0028D0
:10190000E9D100F0B7FA019800F03CF94C4897494A
:1019100008600120800700908F48454A00210B464F
:1019200000F0B6FA314D2888002808D1D54CFEF7D2
:10193000CBFF206800F0BAF828880028F7D000F024
:1019400099FA87490878401C087003B0F0BD0299E5
:10195000218031480180397019200001643800F07D
:1019600011F9324881490860204C20880028E6D0CF
:10197000FEF7AAFF00F014FBF7E700F07BFAA2489D
:1019800004609F4804609D4804609E4804602248AB
:101990000480348016480470204D2878401C28703C
:1019A000C0B2042802D21E4801240BE000F062FA03
:1019B0006A4804702C70B14804701A4804700B48CF
:1019C000048020466649694A10600C7019200001A5
:1019D00000F0D8F803B0F0BDE8002020700020200F
:1019E0007400202000004040EC00202080002020D7
:1019F000F0022020E400202000002040A800202049
:101A00000000E040F82A0000DC002020F202202044
:101A1000EC002020E8002020E0002020A100202071
:101A20000000A043B90220200000404000008C4389
:101A30000000A040FFFFFF7F080020200000484278
:101A400000003E4304002020000038C280B5074853
:101A50000068C0B20B2807D105480068C0B200F08A
:101A600013F904480121017080BDC04620301040A8
:101A700024311040B8022020B0B5094C207801284C
:101A80000DD1084D2888401C288080B21E2806D31E
:101A9000FEF762FDFEF7D6FF002028802070B0BD63
:101AA0009D0020209E0020207047000070B5E84C6B
:101AB0002060B5480068FEF735FCEC49097802293A
:101AC00003D179280DDBB43818E0C91E012915D8D7
:101AD000234909784A1E012A09D87E28F3DA7C2195
:101AE00000E07721C943884208DAB43006E0C91E15
:101AF000012903D84728E6DA4521F3E7FEF774FC0D
:101B00006060204600F0CBF9E56A164E2846314663
:101B100000F0BFFB002800D12E46002805D1124955
:101B2000304600F0C1FB002808D10F4D3046294651
:101B300000F0C5FB002800D13546E5620B4E306849
:101B4000294600F0BBFCFEF797FF3068E16A00F021
:101B5000C3FBFEF7AFFF70BDA8002020A00020202F
:101B6000F40220200000C8430000C8C3E400202085
:101B700080B5FFF72FF90120800328490860284924
:101B8000086080BDB0B57D21090241430E4803685D
:101B9000262206E0E41A051F2D686419A2188A425D
:101BA00010D21C460368A34208D10368A34205D1A2
:101BB0000368A34202D10368A342F3D09C42E9D94F
:101BC000E41AEBE7B0BDC04618E000E010B50A48E3
:101BD00004680A480168204600F018FC08490860BB
:101BE0000120C007074909684140204600F00EFC6B
:101BF0000549086010BDC04600002020700020206C
:101C0000E800202074002020EC002020E24802217F
:101C100001600160E14801600160704780E200E01E
:101C200000E100E0F0B581B0FEF712FF7D20C000BA
:101C3000FFF7A8FFFEF706FFFEF718FF524F3D68BB
:101C4000C8242046FFF79EFF3E682046FFF79AFF14
:101C50008748012101702846314600F03DFB396874
:101C600000F03AFB0649FEF7ADFA06490860FEF7B8
:101C7000F5FE2046FFF786FF01B0F0BDF100202001
:101C800000004040DC002020F0B583B0384E3178B1
:101C900000290BD03178012914D1532866D1354859
:101CA0000078354953220A54022707E055285DD1B0
:101CB00030480078304955220A5401272D480770D2
:101CC000377053E03178022950D12A4A13782A49D3
:101CD000C854581C1070C0B20B2847D108784A78F5
:101CE00010188D782818CC782218087983184A792A
:101CF000D3188F790297FB18CF790197FB180F7AC9
:101D0000FB184F7AFB18DBB2897A00278B42D5D1BA
:101D10001102081800B2FEF767FB0721C9060091FF
:101D200000F074FB154900F071FB154908602002B2
:101D3000401900B2FEF758FB009C214600F066FBFC
:101D40000E4D294600F062FB0E4908600198000222
:101D50000299401800B2FEF747FB214600F056FBFF
:101D6000294600F053FB08490860A7E703B0F0BD1F
:101D70009C0020209B002020900020200000344365
:101D8000840020208C002020A400202082B0FFF7B7
:101D9000EFFEFFF73BFF00F0EFF800F0F5F82B48FF
:101DA00000902B482B4A00242146234600F070F86F
:101DB00029480090AD48294A21460194234600F065
:101DC00067F8274D274E284F284CFEF701FE287054
:101DD000FEF71AFE30703978002908D0012818D192
:101DE000FEF744FE01203870012815D0EDE7287871
:101DF000012805D1FEF72CFE2078401C207000E061
:101E00002078C0B2052801D30198207030780128CD
:101E1000E6D038780128D8D1154800780128D4D1E7
:101E20002078401E0328D0D87844007940008744A9
:101E3000040A0107FFF7A6F9C7E7FFF743F8C4E76D
:101E4000FFF7C4FBC1E7FFF78BF8BEE73333B33FBF
:101E5000A80020206666A6409A99D93F66669640FB
:101E60007800202079002020B9022020A000202026
:101E7000F100202001208104044A1160C104116096
:101E800001051160000610607047C046A0320A408C
:101E900010B5029C42618361C461016310BDF0B55D
:101EA00083B004460068616800F008FB0546A06046
:101EB000206B00282DD001284BD1A169284600F0C5
:101EC000A5FA0290A062E6682846314600F0F6FACC
:101ED0000146606900F09AFA01902062304631466E
:101EE00000F0FAF90146284600F0E8FA216900F00E
:101EF000F3F90146E06900F089FA0746606201984B
:101F0000029900F0E9F9394600F0E6F90146E06A85
:101F10001BE06169284600F079FA02902062A1690D
:101F2000284600F073FA0190A062E6682846314620
:101F300000F0C4FA0146E06900F068FA0746606202
:101F40000298019900F0C8F9394600F0C5F9E0623D
:101F500000E0E668E560266103B0F0BD80B50448A6
:101F6000C06AFEF789FD0348C06AFEF7A3FD80BD85
:101F700050022020840220200120800406490860AD
:101F8000064908607047C046012000040249086005
:101F9000024908607047C04680E200E000E100E0CE
:101FA000F0B583B000263048855F2846FEF71CFA5E
:101FB0002E4908602E488057029045432D4881578E
:101FC00001912D488357581A1527474378192B4DEF
:101FD000AD572B4FBF577C1B172161434018294930
:101FE0008957294CA457661A1A22724380183A1945
:101FF0001E4FD218029BD218019BD21852195118A9
:1020000000F06EF82149087040B2FEF7EDF97860F3
:102010003846FFF744FFFD6A1D4E2846314600F062
:1020200038F9002800D12E46002805D1194930463C
:1020300000F03AF9002808D1164D3046294600F044
:102040003EF9002800D13546FD62134C2068294630
:1020500000F034FAFEF710FD2068F96A00F03CF950
:10206000FEF728FD03B0F0BDBA022020BC022020FC
:10207000820020207A002020880020207B00202061
:10208000890020207C0020208A002020F0002020D1
:1020900000004844000048C4E400202043088B426C
:1020A0001AD3002203098B4279D3030A8B425ED3F1
:1020B000030B8B4242D3030C8B4227D30902FF222E
:1020C00012BA030C8B4202D31212090203D0030B83
:1020D0008B4233D31AE0D3E0411A8041401C704751
:1020E00003460B4371D443088B42F5D30022030906
:1020F0008B4254D3030A8B4239D3030B8B421DD33B
:10210000030C8B4202D394466EE0090AC30B8B4248
:1021100001D3CB03C01A5241830B8B4201D38B03F3
:10212000C01A5241430B8B4201D34B03C01A524198
:10213000030B8B4201D30B03C01A5241C30A8B42DB
:1021400001D3CB02C01A5241830A8B4201D38B02C6
:10215000C01A5241430A8B4201D34B02C01A52416A
:10216000030A8B4201D30B02C01A5241CDD2C309DC
:102170008B4201D3CB01C01A524183098B4201D358
:102180008B01C01A524143098B4201D34B01C01A43
:10219000524103098B4201D30B01C01A5241C308BB
:1021A0008B4201D3CB00C01A524183088B4201D32A
:1021B0008B00C01A524143088B4201D34B00C01A16
:1021C0005241411A524110007047CA0F00D0494293
:1021D000031000D34042534000229C4603098B4227
:1021E0002DD3030A8B4212D38901FC2212BA030AAF
:1021F0008B420CD3890192118B4208D38901921131
:102200008B4204D3890137D0921100E08909C309B8
:102210008B4201D3CB01C01A524183098B4201D3B7
:102220008B01C01A524143098B4201D34B01C01AA2
:10223000524103098B4201D30B01C01A5241C3081A
:102240008B4201D3CB00C01A524183088B4201D389
:102250008B00C01A5241D9D243088B4201D34B00A4
:10226000C01A5241411A00D20146524110466346FB
:102270005B1000D34042704763465B1000D340427E
:1022800001B50021004201D0C9430846C046C046FE
:1022900002BD10B500F066F8EFF30080800001D5B4
:1022A000012010BD002010BD10B500F05BF8EFF369
:1022B00000804000800F012800D0002010BD10B524
:1022C00000F07AF8EFF300804000800F012801D081
:1022D000012010BD002010BD70B50125ED070400E0
:1022E0004C4020D4441A01D2001B0919C60D4B00E2
:1022F000F2B2FF2A29D01B0E2CD000020C02284378
:102300002C43D31ADC40051910D2280A02D3401CF2
:102310006D0611D0761EF6058019FF2A00DA70BD11
:10232000C00DC00570BD694000F0CEF80120054326
:10233000C541521C761CE8E764089C40C901614015
:102340008900E7D10124A043E4E71B0E440200D03A
:10235000034870BD002AFCD1C00FC00770BD00BF8C
:102360000000C07F0123DB0502000A430DD4DA42DE
:1023700003D49A4207D488427047D84214D4D94231
:1023800012D48842704780427047DA4203D59A429D
:10239000F9D5814270475B004200DA4204D24A001C
:1023A000DA4201D28142704710B5024AFEF728F89E
:1023B00010BD00BF090013040123DB0502000A431E
:1023C0000DD4DA4203D49A4207D488427047D842E7
:1023D00014D4D94212D48842704780427047DA42FE
:1023E00003D59A42F9D5814270475B004200DA4238
:1023F00004D24A00DA4201D28142704710B5024A43
:10240000FDF7FEFF10BD00BF0900160470B54200C5
:1024100064414B005C41120E39D01B0E38D0FF2AAC
:102420003CD0FF2B3AD0D2187F3A40024902400AF2
:10243000490A4518ED0106004E43000A090A4843BF
:102440000104731A4019190C4318990F04D05B0842
:10245000012149075B1A521CD80904D3401CF5031B
:1024600001D19D0607D0FF2A08D2D50506D0E40782
:102470002043401970BD0125A843F4E7002A01DC80
:10248000E00770BD2402FF202043C00570BD1B0E75
:10249000FF2A03D0FF2B01D0E00770BDFF263606D0
:1024A0004500B54206D84D00B54203D8D218FF2AE0
:1024B00000D0E7E7004870BD0000C07F70B501257F
:1024C000ED0704004C4022D4441A02D26C40001B99
:1024D0000919C60D4B00F2B2FF2A4BD01B0E50D08B
:1024E00000020C02A8432C43D31ADC40051B05D57F
:1024F000AD0019D36D08761E521E37D0F605280A96
:1025000001D2801970BD70416D0603D070BD694065
:10251000FFF7E8FE9C4009026140490001D0401EDF
:1025200070BD0124A04370BD6D081DD001202B0C8F
:1025300001D12D0410302B0E01D12D0208302B0FAC
:1025400001D12D01001DAB0F01D1AD00801CEB0F9F
:1025500001D16D00401C361A121A6D00680AF5058B
:102560004019012A02DB70BD002070BDC036300A60
:10257000C00770BD1B0E440201D1FF2B00D10248E1
:1025800070BD002AF0D070BD0000C07F81828384BE
:1025900085868788898B8C8D8E8F9192939596975F
:1025A000999A9C9D9FA0A2A3A5A7A8AAACAEB0B2E1
:1025B000B3B5B7B9BCBEC0C2C5C7C9CCCED1D4D7DC
:1025C000D9DCDFE2E6E9ECF0F3F7FAFE08070300F6
:1025D000E80300002000010008076300020000007B
:1025E00017010000010000000000000000000000D2
:1025F000080763000200000017010000010000004E
:1026000000000000000000000800000018000000AA
:1026100000300000000000003826000000002020EC
:1026200010000000200100004826000010002020BB
:10263000E816000048010000840D8F3E00409244DF
:0826400000208F44010100009D
:04000005000000C136
:00000001FF
